:100000000C94A5010C94D6010C94D6010C94D60145
:100010000C94D6010C94D6010C94D6010C94D60104
:100020000C94D6010C94D6010C94D6010C94D601F4
:100030000C94D6010C94D6010C94D6010C94D601E4
:100040000C94D6010C941B060C94D6010C94D6018A
:100050000C94D6010C94D6010C94D6010C9447054F
:100060000C94D6010C9411050C94E7040C94D60161
:100070000C94D6010C94D6010C94D6010C94D601A4
:100080000C94ED050C94D6010C94D6010C94D60179
:100090000C94D6010C94D6010C94D6010C94D60184
:1000A0000C94D6010C94D6010C94BF050C94D60187
:1000B0000C94D6010C94D6010C94D6010C949105A5
:1000C0000C94D6010C94D6010C94D6010C94D60154
:1000D0000C94D6010C94D6010C94D6010C94D60144
:1000E0000C94D6010C940E020C9477030C94950397
:1000F0000C94C4030C944A020C94A8030C94B60309
:100100000C9491030C94BA030C943B020C949E0340
:100110000C9472030C94B0030C94A2030C94C803C7
:100120000C9498030C946C020C94BE030C948D03F5
:100130000C9489030C94AC030C94A4020C945E02FE
:100140000C9449060C94F10200407A10F35A00A076
:10015000724E18090010A5D4E80000E87648170090
:1001600000E40B54020000CA9A3B000000E1F505D0
:10017000000080969800000040420F000000A0861A
:1001800001000000102700000000E803000000004C
:100190006400000000000A000000000001000000F0
:1001A00000002C76D888DC674F0823DFC1DFAE590A
:1001B000E1B1B796E5E3E453C63AE651997696E89D
:1001C000E6C28426EB898C9B62ED407C6FFCEFBC21
:1001D0009C9F40F2BAA56FA5F490055A2AF75C934C
:1001E0006B6CF9676DC11BFCE0E40D47FEF520E682
:1001F000B500D0ED902E0300943577050080841E65
:10020000080000204E0A000000C80C333333330FBF
:10021000986E12831141EF8D2114893BE65516CF5C
:10022000FEE6DB18D1844B381BF77C1D901DA4BB68
:10023000E424203284725E228100C9F124ECA1E51D
:100240003D2700000A0B02090C0D0E0807030401EC
:10025000000000000000000000000000000000009E
:10026000000000000000000000000000000012116B
:10027000100000000000000000000000000000006E
:1002800000000000000000000000220025002800FF
:100290002B002E003100340002010000050108018E
:1002A0000B0100002100240027002A002D0030004F
:1002B000330001010000040107010A0105050505DD
:1002C000070508080808020202020A0A08080404CE
:1002D00004040101010101010101030303030303FC
:1002E0000303040707070C0C0C0C0C0C0C0C02028B
:1002F000020206060606060606060B0B0B0B0B0B88
:100300000B0B010210202008081020401020408014
:1003100002010201080402010102040810204080C9
:100320008040201008040201800402018040201057
:1003300008040201080402010102040810204080A0
:100340000102040810204080490611241FBECFEF8F
:10035000D1E2DEBFCDBF00E00CBF12E0A0E0B2E012
:10036000EAE6FEE100E00BBF02C007900D92A43266
:10037000B107D9F723E0A4E2B2E001C01D92AA368A
:10038000B207E1F711E0C5EAD1E000E006C021972D
:100390000109802FFE010E94150DC43AD10780E0AB
:1003A0000807A9F70E94A6060C94330F0C940000CE
:1003B000E0916303E03388F54091640328E830E07E
:1003C000241B310947FD3395220F331F220F331FA2
:1003D0008217930784F04091650328E532E0241BDF
:1003E000310947FD3395220F331F220F331F821728
:1003F00093070CF49C0122503109220F331F4FB791
:10040000F8948E2F90E0FC01EE0FFF1FE80FF91F0C
:10041000EE52FD4F328321834FBF0895AF92BF92BA
:10042000CF92DF92EF92FF920F931F93CF93DF93C0
:100430006C017B018B01040F151FEB015E01AE18EF
:10044000BF08C017D10759F06991D601ED91FC9111
:100450000190F081E02DC6011995892B79F7C5012E
:10046000DF91CF911F910F91FF90EF90DF90CF9090
:10047000BF90AF900895FC01538D448D252F30E03F
:10048000842F90E0821B930B541710F0CF960895A1
:1004900001970895FC01918D828D981761F0A28DCE
:1004A000AE0FBF2FB11D5D968C91928D9F5F9F7394
:1004B000928F90E008958FEF9FEF0895FC01918D4A
:1004C000828D981731F0828DE80FF11D858D90E0B7
:1004D00008958FEF9FEF0895FC01918D228D892F54
:1004E00090E0805C9F4F821B91098F73992708953C
:1004F00085E392E00E946C0221E0892B09F420E060
:10050000822F0895FC01A48DA80FB92FB11DA35A05
:10051000BF4F2C91848D90E001968F739927848F23
:10052000A689B7892C93A089B1898C918370806446
:100530008C93938D848D981306C00288F389E02DE7
:1005400080818F7D80830895EF92FF920F931F9398
:10055000CF93DF93EC0181E0888F9B8D8C8D981376
:100560001AC0E889F989808185FF15C09FB7F89482
:10057000EE89FF896083E889F989808183708064CE
:1005800080839FBF81E090E0DF91CF911F910F9119
:10059000FF90EF900895F62E0B8D10E00F5F1F4F28
:1005A0000F731127E02E8C8D8E110CC00FB607FC37
:1005B000FACFE889F989808185FFF5CFCE010E94C5
:1005C0008202F1CFEB8DEC0FFD2FF11DE35AFF4FAF
:1005D000F0829FB7F8940B8FEA89FB898081806253
:1005E000CFCFCF93DF93EC01888D8823B9F0AA8910
:1005F000BB89E889F9898C9185FD03C0808186FDDE
:100600000DC00FB607FCF7CF8C9185FFF2CF80812C
:1006100085FFEDCFCE010E948202E9CFDF91CF911D
:10062000089580E090E0892B29F00E9478028111E2
:100630000E94000080E090E0892B49F080E090E08B
:10064000892B29F00E94000081110E94000080E0A7
:1006500090E0892B49F080E090E0892B29F00E94FE
:10066000000081110E94000080E090E0892B49F099
:1006700080E090E0892B29F00E94000081110C9409
:1006800000000895282F30E0F901EE5BFD4F9491B2
:10069000F901EE5FFC4F449124543D4FF901249140
:1006A000222309F435C0992311F191509231F8F4C5
:1006B000E92FF0E08827E05AFC4F8F4F0C94150D7E
:1006C00091039503720389038D03770398039E03B7
:1006D000A203A803AC03B003B603BA037703BE03B7
:1006E000C403C803809180008F7780938000E22F3D
:1006F000F0E0EE0FFF1FE857FD4FA591B4918FB7C3
:10070000F894EC91611148C040954E234C938FBFF3
:100710000895809180008F7DE8CF80918000877F51
:10072000E4CF84B58F7784BDE2CF84B58F7DFBCFD6
:100730008091B0008F778093B000D9CF8091B000C6
:100740008F7DF9CF809190008F7780939000CFCFED
:10075000809190008F7DF9CF80919000877FF5CFB9
:100760008091A0008F778093A000C1CF8091A000DE
:100770008F7DF9CF8091A000877FF5CF80912001F8
:100780008F7780932001B3CF809120018F7DF9CFA7
:1007900080912001877FF5CF4E2BB8CF3FB7F894DB
:1007A00080912D0290912E02A0912F02B0913002E3
:1007B00026B5A89B05C02F3F19F00196A11DB11DBC
:1007C0003FBFBA2FA92F982F8827BC01CD01620FF8
:1007D000711D811D911D42E0660F771F881F991FB3
:1007E0004A95D1F70895AF92BF92CF92DF92EF92E0
:1007F000FF920F931F93CF93DF936B017A01EC016C
:10080000CC5DDD4F28813CE0389F8001399F100D81
:100810001124A0906203B12C27FF1FC0FB0111829D
:10082000108288818F5F888388819801280F311D0D
:1008300087FD3A95F6012A153B051CF488818C301A
:10084000C4F180819181049680349C4908F473C07E
:10085000F60180819181049670C088819801280FEB
:10086000311D87FD3A952A153B05DCF68881A801E4
:10087000480F511D87FD5A95FA01EE0FFF1FE40F37
:10088000F51FEE52FD4F808186FFCBCF8881F801A6
:10089000E80FF11D87FDFA95CF01EE0FFF1FE80F5E
:1008A000F91FEE52FD4F808160E08F730E9442037A
:1008B000B8CF808191812881A801420F511D27FD69
:1008C0005A959A01FA01EE0FFF1FE20FF31FEE5245
:1008D000FD4F21813281820F931FF7019183808325
:1008E00088819801280F311D87FD3A95F901EE0F97
:1008F000FF1FE20FF31FEE52FD4F808186FF22C0E3
:100900008881080F111D87FD1A95F801EE0FFF1F52
:10091000E00FF11FEE52FD4F808161E08F73DF9198
:10092000CF911F910F91FF90EF90DF90CF90BF90EC
:10093000AF900C94420380E49CE9F701918380839B
:100940008FEF8883DF91CF911F910F91FF90EF90F0
:10095000DF90CF90BF90AF900895CF93DF93EC01DD
:1009600088819981009711F00E94B90D198218822F
:100970001D821C821B821A82DF91CF9108950F93F2
:100980001F93CF93DF93EC0188819981009759F0F1
:100990002A813B812617370730F081E0DF91CF9124
:1009A0001F910F9108958B016F5F7F4F0E94420E40
:1009B000009759F0998388831B830A832C813D819A
:1009C000232B59F7FC011082E8CF80E0E7CF1F927C
:1009D0000F920FB60F9211240BB60F922F933F93E5
:1009E0004F935F936F937F938F939F93AF93BF9337
:1009F000EF93FF9385E392E00E948202FF91EF91D3
:100A0000BF91AF919F918F917F916F915F914F9126
:100A10003F912F910F900BBE0F900FBE0F901F9024
:100A200018951F920F920FB60F9211240BB60F92CA
:100A30002F938F939F93EF93FF93E0914502F09153
:100A400046028081E0914B02F0914C0282FD1DC074
:100A5000908180914E028F5F8F7320914F02821799
:100A600041F0E0914E02F0E0EB5CFD4F958F8093FA
:100A70004E02FF91EF919F918F912F910F900BBE9E
:100A80000F900FBE0F901F9018958081F2CF1F928C
:100A90000F920FB60F9211242F933F938F939F9332
:100AA000AF93BF938091290290912A02A0912B02CB
:100AB000B0912C023091280223E0230F2D3758F5F6
:100AC0000196A11DB11D20932802809329029093C5
:100AD0002A02A0932B02B0932C0280912D029091B8
:100AE0002E02A0912F02B09130020196A11DB11DDE
:100AF00080932D0290932E02A0932F02B093300288
:100B0000BF91AF919F918F913F912F910F900FBE09
:100B10000F901F90189526E8230F0296A11DB11D76
:100B2000D2CF1F920F920FB60F9211240BB60F92D5
:100B30002F933F934F935F936F937F938F939F93E5
:100B4000AF93BF93EF93FF9348E251E064E271E00B
:100B500090E080E00E94F303FF91EF91BF91AF918D
:100B60009F918F917F916F915F914F913F912F91C5
:100B70000F900BBE0F900FBE0F901F9018951F92F5
:100B80000F920FB60F9211240BB60F922F933F9333
:100B90004F935F936F937F938F939F93AF93BF9385
:100BA000EF93FF9348EA50E064EA70E083E090E05E
:100BB0000E94F303FF91EF91BF91AF919F918F91AD
:100BC0007F916F915F914F913F912F910F900BBE4D
:100BD0000F900FBE0F901F9018951F920F920FB697
:100BE0000F9211240BB60F922F933F934F935F9365
:100BF0006F937F938F939F93AF93BF93EF93FF93E5
:100C000048E950E064E970E082E090E00E94F3037C
:100C1000FF91EF91BF91AF919F918F917F916F91D4
:100C20005F914F913F912F910F900BBE0F900FBE90
:100C30000F901F9018951F920F920FB60F921124CC
:100C40000BB60F922F933F934F935F936F937F93C6
:100C50008F939F93AF93BF93EF93FF9348E850E038
:100C600064E870E081E090E00E94F303FF91EF916F
:100C7000BF91AF919F918F917F916F915F914F91B4
:100C80003F912F910F900BBE0F900FBE0F901F90B2
:100C90001895109238021092370288EE93E0A0E087
:100CA000B0E08093390290933A02A0933B02B09354
:100CB0003C028AE092E0909336028093350285EC04
:100CC00090E0909342028093410284EC90E09093F4
:100CD00044028093430280EC90E09093460280931C
:100CE000450281EC90E0909348028093470282ECA9
:100CF00090E090934A028093490286EC90E09093B2
:100D00004C0280934B0210924E0210924F021092AE
:100D100050021092510280916203803398F491E066
:100D2000980F909362038093630390E0FC01EE0FB1
:100D3000FF1FE80FF91FEE52FD4F88EB9BE09283F7
:100D4000818308958FEF809363030895CF93DF939A
:100D5000CDB7DEB7A7970FB6F894DEBF0FBECDBFF5
:100D6000789484B5826084BD84B5816084BD85B586
:100D7000826085BD85B5816085BD80916E00816092
:100D800080936E0010928100809181008260809338
:100D9000810080918100816080938100809180003A
:100DA0008160809380008091B10084608093B10065
:100DB0008091B00081608093B0008091910082604A
:100DC0008093910080919100816080939100809147
:100DD00090008160809390008091A1008260809358
:100DE000A1008091A10081608093A1008091A0006A
:100DF00081608093A0008091210182608093210115
:100E00008091210181608093210180912001816086
:100E10008093200180917A00846080937A00809191
:100E20007A00826080937A0080917A00816080935A
:100E30007A0080917A00806880937A001092C100D5
:100E400080916303803308F069C0EFE0F3E0249100
:100E5000E9ECF2E08491882399F090E0880F991FE3
:100E6000FC01EE55FD4FA591B491FC01E857FD4FF3
:100E7000859194918FB7F894EC91E22BEC938FBF0E
:100E800080916303282F30E0F901EE0FFF1FE20F7E
:100E9000F31FEE52FD4F9081907C9D6090831092E5
:100EA0006403109265032CE0622F0E94090D829F5B
:100EB000B001112430E020E0AB01420F531FFA01D2
:100EC000EE0FFF1FE40FF51FEE52FD4F908196FDD0
:100ED00017C02F5F3F4F2C30310571F7813009F07B
:100EE0004BC11092800082E08093810010928500B7
:100EF00010928400B19A80916F00826080936F009D
:100F0000E09163038E2F90E0FC01EE0FFF1FE80FCE
:100F1000F91FEE52FD4F808180648083E09145028D
:100F2000F091460282E08083E0914102F09142021A
:100F30001082E0914302F09144028FEC8083109282
:100F40004D02E0914902F0914A0286E08083E091EF
:100F50004702F0914802808180618083E0914702DE
:100F6000F0914802808188608083E0914702F0918F
:100F70004802808180688083E0914702F0914802B6
:100F800080818F7D808340E4342E58E8E52EF12C5B
:100F900068E5C62E62E0D62E80917B00877F809325
:100FA0007B0030927C0080917A00806480937A008C
:100FB00080917A0086FDFCCF809178006091790065
:100FC000762F682F072E000C880B990B0E94750B4B
:100FD00020E030E040EA50E40E94D40B20E030E012
:100FE00048EC52E40E94D40B20E030EC4FE754E48C
:100FF0000E94920C6093310270933202809333020C
:10100000909334021BA21AA21DA21CA21FA21EA210
:101010008E010F5F1F4F22E044E00E9404094C0143
:10102000009779F0FC0101900020E9F731978F01DA
:10103000081B190BB801CE0182960E94BF048111D2
:10104000C7C0CE0182960E94AD041A8219821C820A
:101050001B821E821D8268E070E0CE0101960E9414
:10106000BF048111BDC0CE0101960E94AD048AA0CB
:101070009BA08114910409F4BEC00EA11FA101150B
:101080001105B9F08D819E81080F191FB801CE019D
:1010900001960E94BF04882309F4ADC029813A81DA
:1010A0008D819E81B401820F931F0E942C0F1E839D
:1010B0000D834D815E8169817A8185E392E00E9492
:1010C0000E0242E050E061E272E085E392E00E94AD
:1010D0000E0289819A81009711F00E94B90D8AA1B0
:1010E0009BA1009711F00E94B90D20E030E040EC88
:1010F00051E46091310270913202809133029091FB
:1011000034020E94040D18160CF07AC08091650319
:101110009601281B310987FD3395C901880F991F56
:10112000880F991F0E94D8010E94CE034B015C01D9
:1011300034EF432E55245394612C712C0E94CE031E
:10114000681979098A099B09683E734081059105F0
:10115000A8F331E0431A51086108710888EE880E3F
:1011600083E0981EA11CB11C411451046104710458
:1011700029F70E94110310CF823061F41092900081
:1011800080939100109295001092940088BB8093F8
:101190007100B6CE833069F41092A00082E0809393
:1011A000A1001092A5001092A40089BB8093720048
:1011B000A7CE8111A5CE1092200182E0809321015B
:1011C00010922501109224018ABB8093730098CE5F
:1011D0001FA30EA3B4018AA19BA10E942C0F35CF9F
:1011E00088E090E09E838D8368E172E089819A8136
:1011F0000E942C0F3CCFCE0101960E94AD0459CF26
:1012000080916403970185CFEF920F931F93CF9343
:10121000DF93E80134E047FD34E1042E000C550B68
:1012200057FF03C0519541955109E32E022F242FFA
:10123000AE010E942209CE01DF91CF911F910F9143
:10124000EF9008958F929F92AF92BF92CF92DF92CC
:10125000EF92FF920F931F93CF93DF9300D000D0B4
:1012600000D0CDB7DEB76A01F22EB02E102FFBE30F
:10127000AF2EA01608F41BE31F5F012F27E0AE017D
:101280004F5F5F4F0E949B0ABC018981982F997024
:10129000913009F44EC09BE2E1FC04C09E2D917098
:1012A000E0FC49C05E2D5071E82FE87083FF55C007
:1012B00084E0911101C083E0EF2DE81B8F1508F049
:1012C000E0E0D6018E2F20E25523C9F1992329F0C1
:1012D000D6019C93C60101966C0196012D5F3F4F8C
:1012E000E2FE33C08EE4D6018C9391E411969C9378
:1012F000119712968C93D9018E2F90E281112AC0FA
:10130000E20FF32FF11D10828EEF9FEF29960FB69B
:10131000F894DEBF0FBECDBFDF91CF911F910F912B
:10132000FF90EF90DF90CF90BF90AF909F908F9005
:1013300008959DE2B7CF90E2B5CF2D9381508111F2
:10134000FCCFCE0ED11CE0E0C1CF8EE6D6018C934F
:1013500091E6CCCF9D938150D1CF482F447082FF2E
:101360003DC084E0911101C083E08F1510F4EF2D92
:10137000E81BD6018E2F20E2552309F1992329F08D
:10138000D6019C93C60101966C0196012D5F3F4FDB
:10139000E2FE1BC089E4D6018C938EE411968C93F7
:1013A000119786E412968C93D9018E2F90E28823B0
:1013B00009F4A6CF9D938150FACF2D9381508111CE
:1013C000FCCFCE0ED11CE0E0D9CF89E6D6018C93BC
:1013D0008EE611968C93119786E6E4CF9B0177FFFA
:1013E00002C030E020E0A1E0B0E0911102C0B0E026
:1013F000A0E0F9013196AE0FBF1F8B2C912CBB20C2
:1014000009F461C05401EFEFAE1ABE0AAA0DBB1D6C
:10141000FA161B0619F014F04F2D4A1B511188C003
:10142000E3FC59C07601A42FB0E2A1114FC0C40E55
:10143000D11C992309F45BC040E0D6011196F60156
:1014400090836D01552309F448C0012F060F9A813E
:10145000582F507184FF03C0913309F401501016C6
:101460000CF047C0093008F008E0EEE2FE2E5B0108
:10147000A01AB10885019194819491082F3F3207F9
:1014800029F4D601FC92F60131966F0162177307B9
:1014900094F1021713077CF5DB01A21BB30BAA24FE
:1014A000A394B12CAC0EBD1EAA0DBB1D11968C9140
:1014B00021503109D601119628153905F4F0F601AD
:1014C00080836D01DBCFB12CA12CA0CFF701B193AC
:1014D0007F01A150AACF9111B0CFD601942F50E334
:1014E00002C05D9391509111FCCFC40ED11C40E01D
:1014F000ACCF01E0BACF80E3DBCF6217730731F4E2
:10150000963388F4953311F4552369F0F6018083FE
:10151000FD01842F90E2811108C0A40FB11D1C921F
:1015200090E080E0F3CE81E3F1CF91938150F3CF4F
:10153000911183CF8ACF283008F027E03327DA01D2
:10154000990F311D87FD916000966105710539F491
:1015500032602E5F3D9330E32A95E1F708959F3F77
:1015600030F080387105610509F03C5F3C5F3D93C8
:10157000913008F08068911DDF93CF931F930F93F4
:10158000FF92EF92192F987F9695E92F9695969551
:10159000E90FFF27EE55FE4F99273327EE24FF244E
:1015A000A701E70105900894079428F4360FE71E79
:1015B000F81E491F511D660F771F881F991F06943B
:1015C000A1F70590079428F4E70EF81E491F561F4F
:1015D000C11D770F881F991F661F0694A1F70590FC
:1015E000079428F4F80E491F561FC71FD11D880FF6
:1015F000991F661F771F0694A1F70590079420F4A2
:10160000490F561FC71FD81F990F661F771F881FC6
:101610000694A9F784911095177041F0D695C79557
:1016200057954795F794E7941A95C1F7E8E4F1E0E8
:1016300068941590159135916591959105907FE28B
:101640007395E118F10A430B560BC90BD009C0F78B
:10165000E10CF11E431F561FC91FD01D7EF47033CD
:1016600011F48A95E6CFE894015030F0080F0AF49F
:101670000027021708F4202F2395022F7A3328F031
:1016800079E37D932A95E9F710C07D932A9589F631
:10169000069497956795379517951794E118F10A71
:1016A000430B560BC90BD00998F023957E91739587
:1016B0007A3308F070E37C932013B8F77E91706161
:1016C0007D9330F0839571E37D9370E32A95E1F784
:1016D0001124EF90FF900F911F91CF91DF919927E7
:1016E00087FD90950895E89409C097FB3EF4909586
:1016F0008095709561957F4F8F4F9F4F9923A9F0EB
:10170000F92F96E9BB279395F69587957795679579
:10171000B795F111F8CFFAF4BB0F11F460FF1BC0BD
:101720006F5F7F4F8F4F9F4F16C0882311F096E950
:1017300011C0772321F09EE8872F762F05C06623FE
:1017400071F096E8862F70E060E02AF09A95660FB7
:10175000771F881FDAF7880F9695879597F9089570
:10176000990F0008550FAA0BE0E8FEEF16161706B2
:10177000E807F907C0F012161306E407F50798F01A
:10178000621B730B840B950B39F40A2661F0232B33
:10179000242B252B21F408950A2609F4A140A695AF
:1017A0008FEF811D811D08950E94E70B0C94580C4A
:1017B0000E944A0C38F00E94510C20F0952311F041
:1017C0000C94410C0C94470C11240C948C0C0E942A
:1017D000690C70F3959FC1F3950F50E0551F629F00
:1017E000F001729FBB27F00DB11D639FAA27F00D7A
:1017F000B11DAA1F649F6627B00DA11D661F829FA1
:101800002227B00DA11D621F739FB00DA11D621F85
:10181000839FA00D611D221F749F3327A00D611DA2
:10182000231F849F600D211D822F762F6A2F112484
:101830009F5750409AF0F1F088234AF0EE0FFF1FB7
:10184000BB1F661F771F881F91505040A9F79E3F0E
:10185000510580F00C94410C0C948C0C5F3FE4F328
:10186000983ED4F3869577956795B795F795E79564
:101870009F5FC1F7FE2B880F911D9695879597F96D
:10188000089597F99F6780E870E060E008959FEF02
:1018900080EC089500240A94161617061806090607
:1018A000089500240A9412161306140605060895D6
:1018B000092E0394000C11F4882352F0BB0F40F45E
:1018C000BF2B11F460FF04C06F5F7F4F8F4F9F4F9E
:1018D000089557FD9058440F551F59F05F3F71F020
:1018E0004795880F97FB991F61F09F3F79F0879587
:1018F0000895121613061406551FF2CF4695F1DF10
:1019000008C0161617061806991FF1CF869571059F
:10191000610508940895E894BB2766277727CB01D3
:1019200097F908950E94A60C0C94580C0E94510C33
:1019300058F00E944A0C40F029F45F3F29F00C94C3
:10194000410C51110C948C0C0C94470C0E94690CA6
:1019500068F39923B1F3552391F3951B550BBB27DE
:10196000AA2762177307840738F09F5F5F4F220F23
:10197000331F441FAA1FA9F335D00E2E3AF0E0E81A
:1019800032D091505040E695001CCAF72BD0FE2F64
:1019900029D0660F771F881FBB1F261737074807F8
:1019A000AB07B0E809F0BB0B802DBF01FF279358B0
:1019B0005F4F3AF09E3F510578F00C94410C0C9427
:1019C0008C0C5F3FE4F3983ED4F38695779567954A
:1019D000B795F7959F5FC9F7880F911D96958795E5
:1019E00097F90895E1E0660F771F881FBB1F621704
:1019F00073078407BA0720F0621B730B840BBA0BC2
:101A0000EE1F88F7E09508950E94B00B08F48FEF61
:101A10000895991B79E004C0991F961708F0961B4A
:101A2000881F7A95C9F780950895EE0FFF1F881FCC
:101A30008BBF0790F691E02D19940F931F93CF93CE
:101A4000DF938230910510F482E090E0E09168032A
:101A5000F091690330E020E0B0E0A0E0309799F425
:101A60002115310509F44AC0281B390B24303105F2
:101A7000D8F58A819B816115710589F1FB019383FA
:101A80008283FE0111C04081518102811381481778
:101A90005907E0F04817590799F4109761F012962A
:101AA0000C93129713961C933296CF01DF91CF912E
:101AB0001F910F9108950093680310936903F4CF69
:101AC0002115310551F04217530738F0A901DB0108
:101AD0009A01BD01DF01F801C1CFEF01F9CF909369
:101AE000690380936803CDCFFE01E20FF31F81935A
:101AF00091932250310939832883D7CF20916603EF
:101B000030916703232B41F42091020230910302AC
:101B10003093670320936603209100023091010205
:101B20002115310541F42DB73EB740910402509183
:101B30000502241B350BE0916603F0916703E21761
:101B4000F307A0F42E1B3F0B2817390778F0AC01E0
:101B50004E5F5F4F2417350748F04E0F5F1F5093BD
:101B6000670340936603819391939FCFF0E0E0E099
:101B70009CCFCF93DF930097E9F0FC01329713825B
:101B80001282A0916803B0916903ED0130E020E07A
:101B90001097A1F420813181820F931F2091660359
:101BA000309167032817390709F061C0F093670384
:101BB000E0936603DF91CF910895EA01CE17DF0726
:101BC000E8F54A815B819E0141155105B1F7E901B4
:101BD000FB83EA8349915991C40FD51FEC17FD0788
:101BE00061F4808191810296840F951FE9019983A8
:101BF0008883828193819B838A83F0E0E0E0129660
:101C00008D919C9113970097B9F52D913C91119767
:101C1000CD010296820F931F2091660330916703D6
:101C20002817390739F6309751F510926903109249
:101C30006803B0936703A0936603BCCFD383C283CA
:101C400040815181840F951FC817D90761F44E5FF9
:101C50005F4F88819981480F591F518340838A8142
:101C60009B81938382832115310509F0B0CFF093D6
:101C70006903E09368039ECFFD01DC01C0CF1382AE
:101C80001282D7CF4F925F926F927F928F929F92E4
:101C9000AF92BF92CF92DF92EF92FF920F931F937A
:101CA000CF93DF938C01009799F4CB01DF91CF9113
:101CB0001F910F91FF90EF90DF90CF90BF90AF906A
:101CC0009F908F907F906F905F904F900C941D0D20
:101CD000FC01E60FF71F9C0122503109E217F307C0
:101CE00008F4AEC0D901CD91DC911197C617D70782
:101CF00020F1C530D10578F0CE01049786179707FB
:101D000050F0C61BD70B2297C193D1936D937C9350
:101D1000CF010E94B90DC801DF91CF911F910F91A2
:101D2000FF90EF90DF90CF90BF90AF909F908F90FB
:101D30007F906F905F904F9008955B01AC1ABD0A41
:101D40004C018C0E9D1EA0916803B0916903512C2B
:101D5000412CF12CE12C109731F580916603909184
:101D600067038815990509F05CC04616570608F008
:101D700058C08091000290910102009741F48DB704
:101D80009EB74091040250910502841B950BE81701
:101D9000F90708F055C0F0936703E0936603F90173
:101DA00071836083B8CF8D919C91119712966C903E
:101DB000129713967C901397A815B90559F56C01E5
:101DC00042E0C40ED11CCA14DB0420F1AC014A1954
:101DD0005B09DA011296159780F062827382518353
:101DE0004083D9016D937C93E114F10471F0D70124
:101DF0001396FC93EE9312978ECF22968C0F9D1F15
:101E0000F90191838083F301EFCFF0936903E093AD
:101E1000680381CF4816590608F42C017D01D301CF
:101E20009ACFCB010E941D0D7C01009749F0AE01B5
:101E3000B8010E94230FC8010E94B90D87016BCF22
:101E400010E000E068CFFB01DC0102C001900D92C0
:101E500041505040D8F70895FB01DC0101900D92EC
:0A1E60000020E1F70895F894FFCF89
:101E6A0000006A03800000000000A4020E023B0288
:101E7A00F1026C024A025E0254656D702043313AE7
:041E8A00000D0A003D
:00000001FF
